:03000000020006F5
:0C005F00750893750900750A8002000303
:0300030002006B8D
:20006B00C2A090753012007DD2A090753012007D80EEAE82AF838E048F051EBEFF011FEC3C
:04008B004D70F3229F
:0B0093005374657665204275657200AD
:06003500E478FFF6D8FD9F
:200013007900E94400601B7A0090009E780175A000E493F2A308B8000205A0D9F4DAF275F5
:02003300A0FF2C
:20003B007800E84400600A790175A000E4F309D8FC7800E84400600C7900900001E4F0A3C3
:04005B00D8FCD9FAFA
:0D00060075810A12008FE58260030200037D
:04008F007582002254
:00000001FF
